:020000040000fa
:080000000001040000000000f3
:020000040000fa
:04000800f2030000ff
:020000040000fa
:04000c00f2030000fb
:020000040000fa
:04001000f2030000f7
:020000040000fa
:04001400f2030000f3
:020000040000fa
:04001800f2030000ef
:020000040000fa
:04001c00f2030000eb
:020000040000fa
:04002000f2030000e7
:020000040000fa
:04002400f2030000e3
:020000040000fa
:04002800f2030000df
:020000040000fa
:04002c00f2030000db
:020000040000fa
:04003000f2030000d7
:020000040000fa
:040034006c03000059
:020000040000fa
:04003800f2030000cf
:020000040000fa
:04003c00f2030000cb
:020000040000fa
:04004000f2030000c7
:020000040000fa
:04004400f2030000c3
:020000040000fa
:04004800f2030000bf
:020000040000fa
:04004c00f2030000bb
:020000040000fa
:04005000f2030000b7
:020000040000fa
:04005400f2030000b3
:020000040000fa
:04005800f2030000af
:020000040000fa
:04005c00f2030000ab
:020000040000fa
:04006000f2030000a7
:020000040000fa
:04006400c8010000cf
:020000040000fa
:04006800f20300009f
:020000040000fa
:04006c00f20300009b
:020000040000fa
:04007000f203000097
:020000040000fa
:04007400f203000093
:020000040000fa
:04007800f20300008f
:020000040000fa
:04007c00f20300008b
:020000040000fa
:04008000f203000087
:020000040000fa
:04008400f203000083
:020000040000fa
:04008800f20300007f
:020000040000fa
:04008c00f20300007b
:020000040000fa
:04009000f203000077
:020000040000fa
:04009400f203000073
:020000040000fa
:04009800f20300006f
:020000040000fa
:04009c00f20300006b
:020000040000fa
:0400a000f203000067
:020000040000fa
:0400a400f203000063
:020000040000fa
:0400a800f20300005f
:020000040000fa
:0400ac00f20300005b
:020000040000fa
:0400b000f203000057
:020000040000fa
:0400b400f203000053
:020000040000fa
:0400b800f20300004f
:020000040000fa
:0400bc00f20300004b
:020000040000fa
:0400c000f203000047
:020000040000fa
:0400c400f203000043
:020000040000fa
:0400c800f20300003f
:020000040000fa
:0400cc00f20300003b
:020000040000fa
:0400d000f203000037
:020000040000fa
:0400d400f203000033
:020000040000fa
:0400d800f20300002f
:020000040000fa
:04010800f2030000fe
:020000040000fa
:04010c00f2030000fa
:020000040000fa
:04011000f2030000f6
:020000040000fa
:04011400f2030000f2
:020000040000fa
:04011800f2030000ee
:020000040000fa
:04011c00f2030000ea
:020000040000fa
:04012000f2030000e6
:020000040000fa
:04012400f2030000e2
:020000040000fa
:04012800f2030000de
:020000040000fa
:04012c00f2030000da
:020000040000fa
:04013000f2030000d6
:020000040000fa
:04013400f2030000d2
:020000040000fa
:04013800f2030000ce
:020000040000fa
:04013c00f2030000ca
:020000040000fa
:04014000f2030000c6
:020000040000fa
:04014400f2030000c2
:020000040000fa
:04014800f2030000be
:020000040000fa
:04014c00f2030000ba
:020000040000fa
:04015000f2030000b6
:020000040000fa
:04015400f2030000b2
:020000040000fa
:04015800f2030000ae
:020000040000fa
:04015c00f2030000aa
:020000040000fa
:04016000f2030000a6
:020000040000fa
:04016400f2030000a2
:020000040000fa
:04016800f20300009e
:020000040000fa
:04016c00f20300009a
:020000040000fa
:04017000f203000096
:020000040000fa
:04017400f203000092
:020000040000fa
:04017800f20300008e
:020000040000fa
:04017c00f20300008a
:020000040000fa
:04018000f203000086
:020000040000fa
:04018400f203000082
:020000040000fa
:04018800f20300007e
:020000040000fa
:04018c00f20300007a
:020000040000fa
:04019000f203000076
:020000040000fa
:04019400f203000072
:020000040000fa
:04019800f20300006e
:020000040000fa
:04019c00f20300006a
:020000040000fa
:0401a000f203000066
:020000040000fa
:0401a400f203000062
:020000040000fa
:0401a800f20300005e
:020000040000fa
:0401ac00f20300005a
:020000040000fa
:0401b000f203000056
:020000040000fa
:0401b400f203000052
:020000040000fa
:0401b800f20300004e
:020000040000fa
:0401bc00f20300004a
:020000040000fa
:0401c000f203000046
:020000040000fa
:0401c400f203000042
:020000040000fa
:0401c800f20300003e
:020000040000fa
:0401cc00f20300003a
:020000040000fa
:0401d000f203000036
:020000040000fa
:0401d400f203000032
:020000040000fa
:0401d800f20300002e
:020000040000fa
:100200002f8220000eff20000e0188000000000059
:10021000000020000000e000020032000001200089
:100220002002880014000700700107000000e000b1
:1002300003003a00806d200001002000020037001a
:100240000000200001002000810f7000010032003a
:1002500014000700000020000000e000020032004f
:100260000000020000000000640402000000000022
:100270000040da000000fe004440a9000000200019
:100280000000e0000300320000002000a001880010
:100290004440a800000006008a1f78008b1f7800e9
:1002a0000000060091018800800478000000eb0047
:1002b0001a003700e284440032a0b4009905ba0065
:1002c000e284440032a0b4009906ba00e2844400fb
:1002d00032a0b4000006eb00476fde00fd07b2005d
:1002e000636ce10003003a00ebff07000000eb0045
:1002f0000a003700606ce10004003a00005deb008a
:100300008b05e900fdff3e00040037006168e10055
:10031000010032000086eb000b00070019c7ba008d
:100320001905ba000e04e00003003a000a00e000dc
:10033000e0ff3a0000000600fe07b2009e018800c0
:100340008a047800f5ff3700395dba008b05e900b3
:100350000c003200295dba008b05e900080032006c
:100360000c00e00003003a00e284440032a0b40034
:10037000f5ff370019ddba008b05e900faff3a00f6
:100380008904e800e184440032a0b40000000600c3
:10039000809fbe00829fbe003400f8000000200055
:1003a000a00188000800fa0085e0a900401680003e
:1003b000610060000000e0001b003a00e0408000a7
:1003c0000000e00003003a0030002000e040880018
:1003d000bc003700e0408000e30f500003003a000b
:1003e00040002000e0408800b6003700e040800078
:1003f000e10f500003003200e0408000e20f5000a7
:1004000007003a001028ef001228ef001428ef0030
:100410001628ef001c28ef00cac2a900a900370067
:100420001c28ef00a7003700e0408000e20f5000da
:1004300043003200e20f500005003e000000e000e3
:1004400008003200e10f50001a0032009d00370012
:10045000e30f50004b003200e40f50006700320001
:100460009800370040168000620060000000e00045
:1004700007003a0000dc25000100200080408800d1
:100480009140880010002000e04088008d00370077
:1004900040168000640060000000e00080003a0028
:1004a0001428ef001628ef0020002000e04088000c
:1004b0008400370040168000620060000000e00009
:1004c00009003a00824080009340800000dc250053
:1004d0000100200002004000838048008040880026
:1004e000914088000c0037004016800064006000d6
:1004f0000000e00008003a00824080009340800045
:1005000000242a00f1ff2f000200400083804800f1
:1005100080408800914088008240800093408000a5
:1005200000802500f1202000800f5100818f5900ac
:100530005d0036001028ef001228ef006100370040
:1005400040168000620060000000e00005003a00f4
:100550001428ef001628ef0010c0b3001be8b70006
:100560005800370040168000640060000000e00082
:100570004f003a001bc8bf000004a2001be8b700f0
:1005800050003700f240800003418000028fbe001f
:1005900040168000620060000000e00005003a00a4
:1005a00000202f00b10220001e0f40005e9748007f
:1005b0000800370040168000640060000000e00082
:1005c00004003a0000e0200041fd2f001e0f400013
:1005d0005e974800f0ff2a00e14120001e01be00a6
:1005e000800f5100818f590033003e001e01be0074
:1005f000f24088000341880032003700f24080005a
:1006000003418000220798003307980040168000bd
:10061000620060000000e00009003a002e01900036
:10062000be01900000b82b00010020000200400035
:100630008380480020079800310798000c0037009d
:1006400040168000640060000000e00008003a00ee
:100650002e019000be01900000482400f1ff2f0001
:10066000020040008380480020079800310798006e
:100670002e019000be019000f0ff2a00e141200011
:10068000800f5100818f59000d003e002e01900017
:10069000be019000f2408800034188000900370045
:1006a00000000000070037000000000005003700d0
:1006b00000000000030037000000000001003700c8
:1006c000000000000080fa003400f9004f01be0075
:1006d0004f00be0000400600809fbe00829fbe000b
:1006e0003400f80000002000a00188000000fa009b
:1006f0008460a900f040800001418000610040005a
:10070000e0804800f040880001418800f24080000d
:100710000341800000002b00e1412000800f5100c8
:10072000818f590002003a001e28ef002028ef00b8
:10073000e0408000e10f500019003a008040800046
:1007400091408000e00f5000e08f58000700320019
:10075000804080009140800061005000e08058009f
:100760008040880091408800190037001ac8bf00f7
:100770000004a2001ae8b7001ac8bf006140600078
:100780000080fb00610060004600dd005116800023
:100790000160a10001007000501688000c003700b5
:1007a000e0408000e20f500009003a001bc8bf0083
:1007b0000004e00006003a00a0408000b140800044
:1007c00061004000e0804800a0408800b1408800ff
:1007d0000080fa003400f9004f01be004f00be0057
:1007e000004006000040da000000fe0000000500a6
:1007f0006022b800060220000000d0008180d200f4
:100800000482d2008582d2000000a00002025200c1
:1008100083825a00030031000202420083824a00b0
:100820000000a1000603e900f3ff3a000000060003
:0c083000efff07000400be0000000600ff
:020000040000fa
:10083c000000fa000080eb00803b88000080eb0099
:10084c00903b8800c622ef00cc22ef00d222ef00b2
:10085c00de22ef00ca22ef00d022ef00d622ef00fa
:10086c00e222ef007167a900f03f20001008880019
:10087c008460a9008c60a80021088000f0fc2f0087
:10088c00008060002008880005e1a800c602a800ce
:10089c00c440a800c040a800c622a800c460a8009c
:1008ac00c060a800c642a800c480a800c080a800f0
:1008bc008de0a8000080fa00000006000c00fa0091
:1008cc00dbff070001003700000000000140fe00c4
:1008dc00f04080000141800002192000030020003c
:1008ec00d0ff0700e00f5000e08f5800f6ff3a00f1
:1008fc0018c8bf000004a20018e8b700e040800050
:10090c00e10f500014003a008040800091408000bc
:10091c000232200003002000b2ff0700c2032000b7
:10092c0003002000bfff0700200798003107980044
:10093c00804080009140800002b82b000300200012
:10094c00a8ff0700c203200003002000b5ff07002a
:10095c00008fbe0027003700e0408000e20f5000ff
:10096c0014003a00a0408000b14080000232200008
:10097c00030020009bff0700c2032000030020009f
:10098c00a8ff07002007980031079800a0408000be
:10099c00b140800002b82b000300200091ff07003b
:1009ac00c2032000030020009eff0700008fbe0042
:1009bc0010003700f04080000141800002b82b008d
:1009cc000300200087ff0700c20320000300200063
:1009dc0094ff07002007980031079800f040800032
:1009ec000141800002202f00b30220007dff070090
:1009fc00008fbe002e009000be009000a2002000d0
:100a0c000300200087ff070000407800304f98005b
:100a1c002e009000be009000a200200003002000d9
:100a2c0070ff0700a2002000030020007dff0700dc
:100a3c0000407800204f98001e00be00a20020004d
:100a4c000300200077ff070000407800104f98004b
:100a5c001e00be00a20020000300200061ff070062
:100a6c00a2002000030020006eff07000040780069
:100a7c00004f9800e04080000000e00023003200ae
:100a8c0018c8bf000004e00020003200e0408000e5
:100a9c00e30f500005003a0000c0eb00104f980027
:100aac0000c0eb00004f980018003700e0408000b9
:100abc00e40f500005003a0000c0eb00304f9800e6
:100acc0000c0eb00204f980010003700e040800081
:100adc00e10f50000d003a008040800091408000f2
:100aec00e00f5000e08f580008003a0000c0eb0007
:100afc00004f980000c0eb00104f980000c0eb00b6
:100b0c00204f980000c0eb00304f98000e4890002a
:100b1c000004e00002003a0000c0eb00004f980017
:100b2c0018c8bf000080fb000000e9004f00de0089
:100b3c0080007800680047004600070063ff37001c
:100b4c000600fa0020479800210798002e0090001c
:100b5c000000e000030032002e4090000074a00062
:100b6c00204798000000eb00000f780010003700c1
:100b7c00cb02a9002e4090000080fb0061006000b9
:100b8c00004078000004e00002003200cae2a80035
:100b9c0001003700cae2a900cb02a8002e40900049
:100bac000080fb000000d100204798001e0fe800d9
:100bbc001e007800e70f5000edff3400cb02a900b7
:100bcc00cae2a800cb02a800c6e2a8000b003700be
:100bdc00c0cc2000010020008400070041168000da
:100bec0000082000008060000000e00003003200dc
:100bfc00c6e2a900cae2a900c6e2a800411680001c
:100c0c0000082000008060000000e000f0ff3a00c7
:100c1c00c6e2a9000080fa00000006000000fa00fd
:100c2c00cb02a800cae2a800cae2a900cb02a90024
:100c3c000080fa00000006000000fa00cb02a900b8
:100c4c00cae2a900cb02a800cae2a8000080fa0000
:100c5c00000006000800fa002007980031079800f1
:100c6c00eeff07008000eb0000c4b300b4ff0700e8
:100c7c00f1ff0700e9ff07008000eb0000ccb30098
:100c8c00afff07000000eb00000f78001e003700dc
:100c9c001e007800ae00900000804000904078006c
:100cac00214798002e409000e14f400003003a008d
:100cbc000040eb0020479800090037001e00780028
:100ccc00ae00900000804000104078008080fb0057
:100cdc000080200000804000904078002147980060
:100cec001e007800e10f500002003a003e00900018
:100cfc00010037000000eb00800078002e409000cf
:100d0c008fff07001e0fe8001e007800e30f500055
:100d1c00dfff3400c8ff0700c0ff07008000eb00b6
:100d2c00a0c8b30086ff0700c3ff07000080fa00cd
:100d3c00000006000200fa00b8ff07008000eb007c
:100d4c0000c4b3007eff0700bbff0700b3ff070022
:100d5c008000eb0000ccb30079ff07000000eb0033
:100d6c00000f7800040037008000eb000040eb001f
:100d7c0073ff07001e0fe8001e007800e30f500001
:100d8c00f9ff3400acff0700a4ff07008000eb0064
:100d9c00a0c8b3006aff0700a7ff07000080fa0095
:040dac00000006003d
:020000040000fa
:100db0001e080000040000000200000000f22b00ea
:100dc00000000000100800000e00000000000000fd
:100dd0000008000010000000020000003f065b0059
:100de0004f666d007d077f006f777c00395e79006c
:080df00071000000000000008a
:020000040000fa
:100df800f03fb1000180b10006003500ee030900a4
:100e080000000000403fb1000180b100fbff3d0041
:100e18001000b000203fb00002003500008009003b
:080e28000000000000000600bc
:020000040000fa
:0200000401f009
:04000000e0bb000061
:020000040000fa
:0200000401f009
:04000400cf7f0000aa
:020000040000fa
:0200000401f009
:04000800ffff0000f6
:020000040000fa
:0200000401f009
:04001400ffff0000ea
:020000040000fa
:0200000401f009
:04001800ffff0000e6
:00000001FF
